{
  "contractName": "KryptoBird",
  "abi": [
    {
      "inputs": [],
      "stateMutability": "nonpayable",
      "type": "constructor"
    },
    {
      "anonymous": false,
      "inputs": [
        {
          "indexed": true,
          "internalType": "address",
          "name": "from",
          "type": "address"
        },
        {
          "indexed": true,
          "internalType": "address",
          "name": "to",
          "type": "address"
        },
        {
          "indexed": true,
          "internalType": "uint256",
          "name": "tokenId",
          "type": "uint256"
        }
      ],
      "name": "Transfer",
      "type": "event"
    },
    {
      "inputs": [
        {
          "internalType": "uint256",
          "name": "",
          "type": "uint256"
        }
      ],
      "name": "kryptoBirdz",
      "outputs": [
        {
          "internalType": "string",
          "name": "",
          "type": "string"
        }
      ],
      "stateMutability": "view",
      "type": "function",
      "constant": true
    },
    {
      "inputs": [],
      "name": "name",
      "outputs": [
        {
          "internalType": "string",
          "name": "",
          "type": "string"
        }
      ],
      "stateMutability": "view",
      "type": "function",
      "constant": true
    },
    {
      "inputs": [],
      "name": "symbol",
      "outputs": [
        {
          "internalType": "string",
          "name": "",
          "type": "string"
        }
      ],
      "stateMutability": "view",
      "type": "function",
      "constant": true
    },
    {
      "inputs": [
        {
          "internalType": "string",
          "name": "_kryptoBird",
          "type": "string"
        }
      ],
      "name": "mint",
      "outputs": [],
      "stateMutability": "nonpayable",
      "type": "function"
    }
  ],
  "bytecode": "0x60806040523480156200001157600080fd5b506040518060400160405280600a81526020017f4b727970746f42697264000000000000000000000000000000000000000000008152506040518060400160405280600681526020017f4b424952445a00000000000000000000000000000000000000000000000000008152508181816000908051906020019062000098929190620000bc565b508060019080519060200190620000b1929190620000bc565b5050505050620001d1565b828054620000ca906200019b565b90600052602060002090601f016020900481019282620000ee57600085556200013a565b82601f106200010957805160ff19168380011785556200013a565b828001600101855582156200013a579182015b82811115620001395782518255916020019190600101906200011c565b5b5090506200014991906200014d565b5090565b5b80821115620001685760008160009055506001016200014e565b5090565b7f4e487b7100000000000000000000000000000000000000000000000000000000600052602260045260246000fd5b60006002820490506001821680620001b457607f821691505b60208210811415620001cb57620001ca6200016c565b5b50919050565b610c1a80620001e16000396000f3fe608060405234801561001057600080fd5b506004361061004c5760003560e01c806306fdde031461005157806393ab6e561461006f57806395d89b411461009f578063d85d3d27146100bd575b600080fd5b6100596100d9565b604051610066919061071c565b60405180910390f35b61008960048036038101906100849190610788565b61016b565b604051610096919061071c565b60405180910390f35b6100a7610217565b6040516100b4919061071c565b60405180910390f35b6100d760048036038101906100d291906108ea565b6102a9565b005b6060600080546100e890610962565b80601f016020809104026020016040519081016040528092919081815260200182805461011490610962565b80156101615780601f1061013657610100808354040283529160200191610161565b820191906000526020600020905b81548152906001019060200180831161014457829003601f168201915b5050505050905090565b6004818154811061017b57600080fd5b90600052602060002001600091509050805461019690610962565b80601f01602080910402602001604051908101604052809291908181526020018280546101c290610962565b801561020f5780601f106101e45761010080835404028352916020019161020f565b820191906000526020600020905b8154815290600101906020018083116101f257829003601f168201915b505050505081565b60606001805461022690610962565b80601f016020809104026020016040519081016040528092919081815260200182805461025290610962565b801561029f5780601f106102745761010080835404028352916020019161029f565b820191906000526020600020905b81548152906001019060200180831161028257829003601f168201915b5050505050905090565b6005816040516102b991906109d0565b908152602001604051809103902060009054906101000a900460ff1615610315576040517f08c379a000000000000000000000000000000000000000000000000000000000815260040161030c90610a33565b60405180910390fd5b6004819080600181540180825580915050600190039060005260206000200160009091909190915090805190602001906103509291906105e0565b50600060016004805490506103659190610a82565b905061037133826103ac565b600160058360405161038391906109d0565b908152602001604051809103902060006101000a81548160ff0219169083151502179055505050565b600073ffffffffffffffffffffffffffffffffffffffff168273ffffffffffffffffffffffffffffffffffffffff16141561041c576040517f08c379a000000000000000000000000000000000000000000000000000000000815260040161041390610b02565b60405180910390fd5b6104258161056e565b15610465576040517f08c379a000000000000000000000000000000000000000000000000000000000815260040161045c90610b6e565b60405180910390fd5b816002600083815260200190815260200160002060006101000a81548173ffffffffffffffffffffffffffffffffffffffff021916908373ffffffffffffffffffffffffffffffffffffffff1602179055506001600360008473ffffffffffffffffffffffffffffffffffffffff1673ffffffffffffffffffffffffffffffffffffffff16815260200190815260200160002060008282546105079190610b8e565b92505081905550808273ffffffffffffffffffffffffffffffffffffffff16600073ffffffffffffffffffffffffffffffffffffffff167fddf252ad1be2c89b69c2b068fc378daa952ba7f163c4a11628f55a4df523b3ef60405160405180910390a45050565b6000806002600084815260200190815260200160002060009054906101000a900473ffffffffffffffffffffffffffffffffffffffff169050600073ffffffffffffffffffffffffffffffffffffffff168173ffffffffffffffffffffffffffffffffffffffff161415915050919050565b8280546105ec90610962565b90600052602060002090601f01602090048101928261060e5760008555610655565b82601f1061062757805160ff1916838001178555610655565b82800160010185558215610655579182015b82811115610654578251825591602001919060010190610639565b5b5090506106629190610666565b5090565b5b8082111561067f576000816000905550600101610667565b5090565b600081519050919050565b600082825260208201905092915050565b60005b838110156106bd5780820151818401526020810190506106a2565b838111156106cc576000848401525b50505050565b6000601f19601f8301169050919050565b60006106ee82610683565b6106f8818561068e565b935061070881856020860161069f565b610711816106d2565b840191505092915050565b6000602082019050818103600083015261073681846106e3565b905092915050565b6000604051905090565b600080fd5b600080fd5b6000819050919050565b61076581610752565b811461077057600080fd5b50565b6000813590506107828161075c565b92915050565b60006020828403121561079e5761079d610748565b5b60006107ac84828501610773565b91505092915050565b600080fd5b600080fd5b7f4e487b7100000000000000000000000000000000000000000000000000000000600052604160045260246000fd5b6107f7826106d2565b810181811067ffffffffffffffff82111715610816576108156107bf565b5b80604052505050565b600061082961073e565b905061083582826107ee565b919050565b600067ffffffffffffffff821115610855576108546107bf565b5b61085e826106d2565b9050602081019050919050565b82818337600083830152505050565b600061088d6108888461083a565b61081f565b9050828152602081018484840111156108a9576108a86107ba565b5b6108b484828561086b565b509392505050565b600082601f8301126108d1576108d06107b5565b5b81356108e184826020860161087a565b91505092915050565b600060208284031215610900576108ff610748565b5b600082013567ffffffffffffffff81111561091e5761091d61074d565b5b61092a848285016108bc565b91505092915050565b7f4e487b7100000000000000000000000000000000000000000000000000000000600052602260045260246000fd5b6000600282049050600182168061097a57607f821691505b6020821081141561098e5761098d610933565b5b50919050565b600081905092915050565b60006109aa82610683565b6109b48185610994565b93506109c481856020860161069f565b80840191505092915050565b60006109dc828461099f565b915081905092915050565b7f4572726f723a206b727970746f6269726420616c726561647920657869737473600082015250565b6000610a1d60208361068e565b9150610a28826109e7565b602082019050919050565b60006020820190508181036000830152610a4c81610a10565b9050919050565b7f4e487b7100000000000000000000000000000000000000000000000000000000600052601160045260246000fd5b6000610a8d82610752565b9150610a9883610752565b925082821015610aab57610aaa610a53565b5b828203905092915050565b7f4552433732313a206d696e74696e6720746f2030206164647265737300000000600082015250565b6000610aec601c8361068e565b9150610af782610ab6565b602082019050919050565b60006020820190508181036000830152610b1b81610adf565b9050919050565b7f4552433732313a20746f6b656e20616c7265616479206d696e74656400000000600082015250565b6000610b58601c8361068e565b9150610b6382610b22565b602082019050919050565b60006020820190508181036000830152610b8781610b4b565b9050919050565b6000610b9982610752565b9150610ba483610752565b9250827fffffffffffffffffffffffffffffffffffffffffffffffffffffffffffffffff03821115610bd957610bd8610a53565b5b82820190509291505056fea2646970667358221220bd9990723952c45269fbdce2b78f791e76fef2a65cb6e099c5d63b4c9238b5ea64736f6c634300080a0033",
  "immutableReferences": {},
  "source": "// SPDX-License-Identifier: MIT\r\npragma solidity ^0.8.0;\r\n\r\nimport \"./ERC721Connector.sol\";\r\n\r\ncontract KryptoBird is ERC721Connector {\r\n    string[] public kryptoBirdz;\r\n    mapping(string => bool) _kryptoBirdExists;\r\n\r\n    function mint(string memory _kryptoBird) public {\r\n        require(\r\n            !_kryptoBirdExists[_kryptoBird],\r\n            \"Error: kryptobird already exists\"\r\n        );\r\n        // this is deprecated after ver 6.\r\n        //uint256 _id = KryptoBirdz.push(_kryptoBird);\r\n\r\n        kryptoBirdz.push(_kryptoBird);\r\n        uint256 _id = kryptoBirdz.length - 1;\r\n\r\n        _mint(msg.sender, _id);\r\n        _kryptoBirdExists[_kryptoBird] = true;\r\n    }\r\n\r\n    constructor() ERC721Connector(\"KryptoBird\", \"KBIRDZ\") {}\r\n}\r\n",
  "sourcePath": "E:\\GitRepos\\NFT-app\\src\\contracts\\KryptoBirdz.sol",
  "compiler": {
    "name": "solc",
    "version": "0.8.10+commit.fc410830.Emscripten.clang"
  },
  "schemaVersion": "3.4.3",
  "updatedAt": "2021-11-17T20:51:39.332Z",
  "networkType": "ethereum",
  "devdoc": {
    "kind": "dev",
    "methods": {},
    "version": 1
  },
  "userdoc": {
    "kind": "user",
    "methods": {},
    "version": 1
  }
}